{"abi":[{"type":"constructor","inputs":[{"name":"_owner","type":"address","internalType":"address"},{"name":"_usdt","type":"address","internalType":"address"},{"name":"_token","type":"address","internalType":"address"},{"name":"_tokensPerUSDT","type":"uint256","internalType":"uint256"}],"stateMutability":"nonpayable"},{"type":"function","name":"computeTokenOut","inputs":[{"name":"usdt_amount","type":"uint256","internalType":"uint256"}],"outputs":[{"name":"","type":"uint256","internalType":"uint256"}],"stateMutability":"view"},{"type":"function","name":"owner","inputs":[],"outputs":[{"name":"","type":"address","internalType":"address"}],"stateMutability":"view"},{"type":"function","name":"rate","inputs":[],"outputs":[{"name":"","type":"uint256","internalType":"uint256"}],"stateMutability":"view"},{"type":"function","name":"setRate","inputs":[{"name":"_rate","type":"uint256","internalType":"uint256"}],"outputs":[],"stateMutability":"nonpayable"},{"type":"function","name":"swap","inputs":[{"name":"usdtAmount","type":"uint256","internalType":"uint256"}],"outputs":[],"stateMutability":"nonpayable"},{"type":"function","name":"token","inputs":[],"outputs":[{"name":"","type":"address","internalType":"contract IERC20"}],"stateMutability":"view"},{"type":"function","name":"usdt","inputs":[],"outputs":[{"name":"","type":"address","internalType":"contract IERC20"}],"stateMutability":"view"},{"type":"function","name":"withdrawTokens","inputs":[{"name":"amount","type":"uint256","internalType":"uint256"}],"outputs":[],"stateMutability":"nonpayable"},{"type":"function","name":"withdrawUSDT","inputs":[{"name":"amount","type":"uint256","internalType":"uint256"}],"outputs":[],"stateMutability":"nonpayable"},{"type":"event","name":"TokensSwapped","inputs":[{"name":"user","type":"address","indexed":true,"internalType":"address"},{"name":"usdtAmount","type":"uint256","indexed":false,"internalType":"uint256"},{"name":"tokenAmount","type":"uint256","indexed":false,"internalType":"uint256"}],"anonymous":false}],"bytecode":{"object":"0x60c060405234801561001057600080fd5b506040516109eb3803806109eb83398101604081905261002f9161007b565b600080546001600160a01b0319166001600160a01b0395861617905591831660805290911660a0526001556100c6565b80516001600160a01b038116811461007657600080fd5b919050565b6000806000806080858703121561009157600080fd5b61009a8561005f565b93506100a86020860161005f565b92506100b66040860161005f565b6060959095015193969295505050565b60805160a0516108d76101146000396000818161016c015281816101ea015281816105bc015261069b01526000818160b90152818161032a015281816103fb01526104d701526108d76000f3fe608060405234801561001057600080fd5b50600436106100935760003560e01c80633ea521ef116100665780633ea521ef1461011b5780638da5cb5b1461012e57806394b918de14610141578063a87bdd7e14610154578063fc0c546a1461016757600080fd5b80632c4e722e146100985780632f48ab7d146100b4578063315a095d146100f357806334fcf43714610108575b600080fd5b6100a160015481565b6040519081526020015b60405180910390f35b6100db7f000000000000000000000000000000000000000000000000000000000000000081565b6040516001600160a01b0390911681526020016100ab565b6101066101013660046107d2565b61018e565b005b6101066101163660046107d2565b6102a8565b6101066101293660046107d2565b6102d7565b6000546100db906001600160a01b031681565b61010661014f3660046107d2565b6103de565b6100a16101623660046107d2565b610793565b6100db7f000000000000000000000000000000000000000000000000000000000000000081565b6000546001600160a01b031633146101c15760405162461bcd60e51b81526004016101b8906107eb565b60405180910390fd5b60005460405163a9059cbb60e01b81526001600160a01b039182166004820152602481018390527f00000000000000000000000000000000000000000000000000000000000000009091169063a9059cbb906044016020604051808303816000875af1158015610235573d6000803e3d6000fd5b505050506040513d601f19601f820116820180604052508101906102599190610812565b6102a55760405162461bcd60e51b815260206004820152601760248201527f546f6b656e207769746864726177616c206661696c656400000000000000000060448201526064016101b8565b50565b6000546001600160a01b031633146102d25760405162461bcd60e51b81526004016101b8906107eb565b600155565b6000546001600160a01b031633146103015760405162461bcd60e51b81526004016101b8906107eb565b60005460405163a9059cbb60e01b81526001600160a01b039182166004820152602481018390527f00000000000000000000000000000000000000000000000000000000000000009091169063a9059cbb906044016020604051808303816000875af1158015610375573d6000803e3d6000fd5b505050506040513d601f19601f820116820180604052508101906103999190610812565b6102a55760405162461bcd60e51b81526020600482015260166024820152751554d115081dda5d1a191c985dd85b0819985a5b195960521b60448201526064016101b8565b604051636eb1769f60e11b815233600482015230602482015281907f00000000000000000000000000000000000000000000000000000000000000006001600160a01b03169063dd62ed3e90604401602060405180830381865afa15801561044a573d6000803e3d6000fd5b505050506040513d601f19601f8201168201806040525081019061046e919061083b565b10156104b55760405162461bcd60e51b81526020600482015260166024820152755553445420616c6c6f77616e636520746f6f206c6f7760501b60448201526064016101b8565b6040516323b872dd60e01b8152336004820152306024820152604481018290527f00000000000000000000000000000000000000000000000000000000000000006001600160a01b0316906323b872dd906064016020604051808303816000875af1158015610528573d6000803e3d6000fd5b505050506040513d601f19601f8201168201806040525081019061054c9190610812565b61058f5760405162461bcd60e51b81526020600482015260146024820152731554d115081d1c985b9cd9995c8819985a5b195960621b60448201526064016101b8565b600061059a82610793565b6040516370a0823160e01b815230600482015290915081906001600160a01b037f000000000000000000000000000000000000000000000000000000000000000016906370a0823190602401602060405180830381865afa158015610603573d6000803e3d6000fd5b505050506040513d601f19601f82011682018060405250810190610627919061083b565b101561067f5760405162461bcd60e51b815260206004820152602160248201527f4e6f7420656e6f75676820746f6b656e7320696e2074686520636f6e747261636044820152601d60fa1b60648201526084016101b8565b60405163a9059cbb60e01b8152336004820152602481018290527f00000000000000000000000000000000000000000000000000000000000000006001600160a01b03169063a9059cbb906044016020604051808303816000875af11580156106ec573d6000803e3d6000fd5b505050506040513d601f19601f820116820180604052508101906107109190610812565b6107545760405162461bcd60e51b8152602060048201526015602482015274151bdad95b881d1c985b9cd9995c8819985a5b1959605a1b60448201526064016101b8565b604080518381526020810183905233917f18704ae982dcd24a1beeeed3ecf045ab0520d7b7519b97adf3e4f40bf7efe339910160405180910390a25050565b600154600090620f424090670de0b6b3a764000090829082906107b69087610854565b6107c09190610854565b6107ca919061087f565b949350505050565b6000602082840312156107e457600080fd5b5035919050565b6020808252600d908201526c2737ba103a34329037bbb732b960991b604082015260600190565b60006020828403121561082457600080fd5b8151801515811461083457600080fd5b9392505050565b60006020828403121561084d57600080fd5b5051919050565b808202811582820484141761087957634e487b7160e01b600052601160045260246000fd5b92915050565b60008261089c57634e487b7160e01b600052601260045260246000fd5b50049056fea26469706673582212209a9ed754faaebd7c1693e25891794583e4736d021c57ea41f140329d8c9465fc64736f6c634300081c0033","linkReferences":{}},"methodIdentifiers":{"computeTokenOut(uint256)":"a87bdd7e","owner()":"8da5cb5b","rate()":"2c4e722e","setRate(uint256)":"34fcf437","swap(uint256)":"94b918de","token()":"fc0c546a","usdt()":"2f48ab7d","withdrawTokens(uint256)":"315a095d","withdrawUSDT(uint256)":"3ea521ef"},"id":32}