{"abi":[{"type":"constructor","inputs":[],"stateMutability":"nonpayable"},{"type":"function","name":"createMockToken","inputs":[{"name":"name_","type":"string","internalType":"string"},{"name":"symbol_","type":"string","internalType":"string"},{"name":"decimals_","type":"uint8","internalType":"uint8"}],"outputs":[],"stateMutability":"nonpayable"},{"type":"function","name":"createTokenPresale","inputs":[{"name":"_owner","type":"address","internalType":"address"},{"name":"_usdt","type":"address","internalType":"address"},{"name":"_token","type":"address","internalType":"address"},{"name":"_tokensPerUSDT","type":"uint256","internalType":"uint256"}],"outputs":[],"stateMutability":"nonpayable"},{"type":"function","name":"owner","inputs":[],"outputs":[{"name":"","type":"address","internalType":"address"}],"stateMutability":"view"},{"type":"function","name":"renounceOwnership","inputs":[],"outputs":[],"stateMutability":"nonpayable"},{"type":"function","name":"transferOwnership","inputs":[{"name":"newOwner","type":"address","internalType":"address"}],"outputs":[],"stateMutability":"nonpayable"},{"type":"event","name":"MockTokenCreated","inputs":[{"name":"tokenAddress","type":"address","indexed":true,"internalType":"address"}],"anonymous":false},{"type":"event","name":"OwnershipTransferred","inputs":[{"name":"previousOwner","type":"address","indexed":true,"internalType":"address"},{"name":"newOwner","type":"address","indexed":true,"internalType":"address"}],"anonymous":false},{"type":"event","name":"TokenPresaleCreated","inputs":[{"name":"presaleAddress","type":"address","indexed":true,"internalType":"address"},{"name":"token","type":"address","indexed":false,"internalType":"address"}],"anonymous":false},{"type":"error","name":"OwnableInvalidOwner","inputs":[{"name":"owner","type":"address","internalType":"address"}]},{"type":"error","name":"OwnableUnauthorizedAccount","inputs":[{"name":"account","type":"address","internalType":"address"}]}],"bytecode":{"object":"0x6080604052348015600f57600080fd5b503380603557604051631e4fbdf760e01b81526000600482015260240160405180910390fd5b603c816041565b506091565b600080546001600160a01b038381166001600160a01b0319831681178455604051919092169283917f8be0079c531659141344cd1fd0a4f28419497f9722a3daafe3b4186f6b6457e09190a35050565b61199d806100a06000396000f3fe608060405234801561001057600080fd5b50600436106100575760003560e01c806319ffc80a1461005c578063715018a61461007157806382140e4d146100795780638da5cb5b1461008c578063f2fde38b146100ab575b600080fd5b61006f61006a366004610369565b6100be565b005b61006f610135565b61006f610087366004610408565b610149565b600054604080516001600160a01b039092168252519081900360200190f35b61006f6100b9366004610453565b6101ea565b60008383836040516100cf906102aa565b6100db939291906104bb565b604051809103906000f0801580156100f7573d6000803e3d6000fd5b506040519091506001600160a01b038216907f85d6a14e9706bd8dda3f252058336176b378a15c2dc5ce5a113c716c60c54b1590600090a250505050565b61013d61022d565b610147600061025a565b565b60008484848460405161015b906102b7565b6001600160a01b0394851681529284166020840152921660408201526060810191909152608001604051809103906000f08015801561019e573d6000803e3d6000fd5b506040516001600160a01b038581168252919250908216907fbde9950ce226fdb992046e8d0746f4a3e5ecb9480b2c9582b91130a0daefdd539060200160405180910390a25050505050565b6101f261022d565b6001600160a01b03811661022157604051631e4fbdf760e01b8152600060048201526024015b60405180910390fd5b61022a8161025a565b50565b6000546001600160a01b031633146101475760405163118cdaa760e01b8152336004820152602401610218565b600080546001600160a01b038381166001600160a01b0319831681178455604051919092169283917f8be0079c531659141344cd1fd0a4f28419497f9722a3daafe3b4186f6b6457e09190a35050565b610a88806104f583390190565b6109eb80610f7d83390190565b634e487b7160e01b600052604160045260246000fd5b600082601f8301126102eb57600080fd5b813567ffffffffffffffff811115610305576103056102c4565b604051601f8201601f19908116603f0116810167ffffffffffffffff81118282101715610334576103346102c4565b60405281815283820160200185101561034c57600080fd5b816020850160208301376000918101602001919091529392505050565b60008060006060848603121561037e57600080fd5b833567ffffffffffffffff81111561039557600080fd5b6103a1868287016102da565b935050602084013567ffffffffffffffff8111156103be57600080fd5b6103ca868287016102da565b925050604084013560ff811681146103e157600080fd5b809150509250925092565b80356001600160a01b038116811461040357600080fd5b919050565b6000806000806080858703121561041e57600080fd5b610427856103ec565b9350610435602086016103ec565b9250610443604086016103ec565b9396929550929360600135925050565b60006020828403121561046557600080fd5b61046e826103ec565b9392505050565b6000815180845260005b8181101561049b5760208185018101518683018201520161047f565b506000602082860101526020601f19601f83011685010191505092915050565b6060815260006104ce6060830186610475565b82810360208401526104e08186610475565b91505060ff8316604083015294935050505056fe608060405234801561001057600080fd5b50604051610a88380380610a8883398101604081905261002f91610123565b8282600361003d838261022f565b50600461004a828261022f565b50506005805460ff191660ff9390931692909217909155506102ed915050565b634e487b7160e01b600052604160045260246000fd5b600082601f83011261009157600080fd5b81516001600160401b038111156100aa576100aa61006a565b604051601f8201601f19908116603f011681016001600160401b03811182821017156100d8576100d861006a565b6040528181528382016020018510156100f057600080fd5b60005b8281101561010f576020818601810151838301820152016100f3565b506000918101602001919091529392505050565b60008060006060848603121561013857600080fd5b83516001600160401b0381111561014e57600080fd5b61015a86828701610080565b602086015190945090506001600160401b0381111561017857600080fd5b61018486828701610080565b925050604084015160ff8116811461019b57600080fd5b809150509250925092565b600181811c908216806101ba57607f821691505b6020821081036101da57634e487b7160e01b600052602260045260246000fd5b50919050565b601f82111561022a57806000526020600020601f840160051c810160208510156102075750805b601f840160051c820191505b818110156102275760008155600101610213565b50505b505050565b81516001600160401b038111156102485761024861006a565b61025c8161025684546101a6565b846101e0565b6020601f82116001811461029057600083156102785750848201515b600019600385901b1c1916600184901b178455610227565b600084815260208120601f198516915b828110156102c057878501518255602094850194600190920191016102a0565b50848210156102de5786840151600019600387901b60f8161c191681555b50505050600190811b01905550565b61078c806102fc6000396000f3fe608060405234801561001057600080fd5b506004361061009e5760003560e01c806340c10f191161006657806340c10f191461011e57806370a082311461013357806395d89b411461015c578063a9059cbb14610164578063dd62ed3e1461017757600080fd5b806306fdde03146100a3578063095ea7b3146100c157806318160ddd146100e457806323b872dd146100f6578063313ce56714610109575b600080fd5b6100ab6101b0565b6040516100b891906105d5565b60405180910390f35b6100d46100cf36600461063f565b610242565b60405190151581526020016100b8565b6002545b6040519081526020016100b8565b6100d4610104366004610669565b61025c565b60055460405160ff90911681526020016100b8565b61013161012c36600461063f565b610280565b005b6100e86101413660046106a6565b6001600160a01b031660009081526020819052604090205490565b6100ab61028e565b6100d461017236600461063f565b61029d565b6100e86101853660046106c8565b6001600160a01b03918216600090815260016020908152604080832093909416825291909152205490565b6060600380546101bf906106fb565b80601f01602080910402602001604051908101604052809291908181526020018280546101eb906106fb565b80156102385780601f1061020d57610100808354040283529160200191610238565b820191906000526020600020905b81548152906001019060200180831161021b57829003601f168201915b5050505050905090565b6000336102508185856102ab565b60019150505b92915050565b60003361026a8582856102bd565b610275858585610341565b506001949350505050565b61028a82826103a0565b5050565b6060600480546101bf906106fb565b600033610250818585610341565b6102b883838360016103d6565b505050565b6001600160a01b0383811660009081526001602090815260408083209386168352929052205460001981101561033b578181101561032c57604051637dc7a0d960e11b81526001600160a01b038416600482015260248101829052604481018390526064015b60405180910390fd5b61033b848484840360006103d6565b50505050565b6001600160a01b03831661036b57604051634b637e8f60e11b815260006004820152602401610323565b6001600160a01b0382166103955760405163ec442f0560e01b815260006004820152602401610323565b6102b88383836104ab565b6001600160a01b0382166103ca5760405163ec442f0560e01b815260006004820152602401610323565b61028a600083836104ab565b6001600160a01b0384166104005760405163e602df0560e01b815260006004820152602401610323565b6001600160a01b03831661042a57604051634a1406b160e11b815260006004820152602401610323565b6001600160a01b038085166000908152600160209081526040808320938716835292905220829055801561033b57826001600160a01b0316846001600160a01b03167f8c5be1e5ebec7d5bd14f71427d1e84f3dd0314c0f7b2291e5b200ac8c7c3b9258460405161049d91815260200190565b60405180910390a350505050565b6001600160a01b0383166104d65780600260008282546104cb9190610735565b909155506105489050565b6001600160a01b038316600090815260208190526040902054818110156105295760405163391434e360e21b81526001600160a01b03851660048201526024810182905260448101839052606401610323565b6001600160a01b03841660009081526020819052604090209082900390555b6001600160a01b03821661056457600280548290039055610583565b6001600160a01b03821660009081526020819052604090208054820190555b816001600160a01b0316836001600160a01b03167fddf252ad1be2c89b69c2b068fc378daa952ba7f163c4a11628f55a4df523b3ef836040516105c891815260200190565b60405180910390a3505050565b602081526000825180602084015260005b8181101561060357602081860181015160408684010152016105e6565b506000604082850101526040601f19601f83011684010191505092915050565b80356001600160a01b038116811461063a57600080fd5b919050565b6000806040838503121561065257600080fd5b61065b83610623565b946020939093013593505050565b60008060006060848603121561067e57600080fd5b61068784610623565b925061069560208501610623565b929592945050506040919091013590565b6000602082840312156106b857600080fd5b6106c182610623565b9392505050565b600080604083850312156106db57600080fd5b6106e483610623565b91506106f260208401610623565b90509250929050565b600181811c9082168061070f57607f821691505b60208210810361072f57634e487b7160e01b600052602260045260246000fd5b50919050565b8082018082111561025657634e487b7160e01b600052601160045260246000fdfea2646970667358221220e2a8b1b8f118680f45188a3d54406d939feaf249cab39414a515fd75f0077a6c64736f6c634300081c003360c060405234801561001057600080fd5b506040516109eb3803806109eb83398101604081905261002f9161007b565b600080546001600160a01b0319166001600160a01b0395861617905591831660805290911660a0526001556100c6565b80516001600160a01b038116811461007657600080fd5b919050565b6000806000806080858703121561009157600080fd5b61009a8561005f565b93506100a86020860161005f565b92506100b66040860161005f565b6060959095015193969295505050565b60805160a0516108d76101146000396000818161016c015281816101ea015281816105bc015261069b01526000818160b90152818161032a015281816103fb01526104d701526108d76000f3fe608060405234801561001057600080fd5b50600436106100935760003560e01c80633ea521ef116100665780633ea521ef1461011b5780638da5cb5b1461012e57806394b918de14610141578063a87bdd7e14610154578063fc0c546a1461016757600080fd5b80632c4e722e146100985780632f48ab7d146100b4578063315a095d146100f357806334fcf43714610108575b600080fd5b6100a160015481565b6040519081526020015b60405180910390f35b6100db7f000000000000000000000000000000000000000000000000000000000000000081565b6040516001600160a01b0390911681526020016100ab565b6101066101013660046107d2565b61018e565b005b6101066101163660046107d2565b6102a8565b6101066101293660046107d2565b6102d7565b6000546100db906001600160a01b031681565b61010661014f3660046107d2565b6103de565b6100a16101623660046107d2565b610793565b6100db7f000000000000000000000000000000000000000000000000000000000000000081565b6000546001600160a01b031633146101c15760405162461bcd60e51b81526004016101b8906107eb565b60405180910390fd5b60005460405163a9059cbb60e01b81526001600160a01b039182166004820152602481018390527f00000000000000000000000000000000000000000000000000000000000000009091169063a9059cbb906044016020604051808303816000875af1158015610235573d6000803e3d6000fd5b505050506040513d601f19601f820116820180604052508101906102599190610812565b6102a55760405162461bcd60e51b815260206004820152601760248201527f546f6b656e207769746864726177616c206661696c656400000000000000000060448201526064016101b8565b50565b6000546001600160a01b031633146102d25760405162461bcd60e51b81526004016101b8906107eb565b600155565b6000546001600160a01b031633146103015760405162461bcd60e51b81526004016101b8906107eb565b60005460405163a9059cbb60e01b81526001600160a01b039182166004820152602481018390527f00000000000000000000000000000000000000000000000000000000000000009091169063a9059cbb906044016020604051808303816000875af1158015610375573d6000803e3d6000fd5b505050506040513d601f19601f820116820180604052508101906103999190610812565b6102a55760405162461bcd60e51b81526020600482015260166024820152751554d115081dda5d1a191c985dd85b0819985a5b195960521b60448201526064016101b8565b604051636eb1769f60e11b815233600482015230602482015281907f00000000000000000000000000000000000000000000000000000000000000006001600160a01b03169063dd62ed3e90604401602060405180830381865afa15801561044a573d6000803e3d6000fd5b505050506040513d601f19601f8201168201806040525081019061046e919061083b565b10156104b55760405162461bcd60e51b81526020600482015260166024820152755553445420616c6c6f77616e636520746f6f206c6f7760501b60448201526064016101b8565b6040516323b872dd60e01b8152336004820152306024820152604481018290527f00000000000000000000000000000000000000000000000000000000000000006001600160a01b0316906323b872dd906064016020604051808303816000875af1158015610528573d6000803e3d6000fd5b505050506040513d601f19601f8201168201806040525081019061054c9190610812565b61058f5760405162461bcd60e51b81526020600482015260146024820152731554d115081d1c985b9cd9995c8819985a5b195960621b60448201526064016101b8565b600061059a82610793565b6040516370a0823160e01b815230600482015290915081906001600160a01b037f000000000000000000000000000000000000000000000000000000000000000016906370a0823190602401602060405180830381865afa158015610603573d6000803e3d6000fd5b505050506040513d601f19601f82011682018060405250810190610627919061083b565b101561067f5760405162461bcd60e51b815260206004820152602160248201527f4e6f7420656e6f75676820746f6b656e7320696e2074686520636f6e747261636044820152601d60fa1b60648201526084016101b8565b60405163a9059cbb60e01b8152336004820152602481018290527f00000000000000000000000000000000000000000000000000000000000000006001600160a01b03169063a9059cbb906044016020604051808303816000875af11580156106ec573d6000803e3d6000fd5b505050506040513d601f19601f820116820180604052508101906107109190610812565b6107545760405162461bcd60e51b8152602060048201526015602482015274151bdad95b881d1c985b9cd9995c8819985a5b1959605a1b60448201526064016101b8565b604080518381526020810183905233917f18704ae982dcd24a1beeeed3ecf045ab0520d7b7519b97adf3e4f40bf7efe339910160405180910390a25050565b600154600090620f424090670de0b6b3a764000090829082906107b69087610854565b6107c09190610854565b6107ca919061087f565b949350505050565b6000602082840312156107e457600080fd5b5035919050565b6020808252600d908201526c2737ba103a34329037bbb732b960991b604082015260600190565b60006020828403121561082457600080fd5b8151801515811461083457600080fd5b9392505050565b60006020828403121561084d57600080fd5b5051919050565b808202811582820484141761087957634e487b7160e01b600052601160045260246000fd5b92915050565b60008261089c57634e487b7160e01b600052601260045260246000fd5b50049056fea26469706673582212209a9ed754faaebd7c1693e25891794583e4736d021c57ea41f140329d8c9465fc64736f6c634300081c0033a264697066735822122011ed137c7cc4b4a4aa9304c5268316c885ea9fde9cb046b575491788f7406d4964736f6c634300081c0033","linkReferences":{}},"methodIdentifiers":{"createMockToken(string,string,uint8)":"19ffc80a","createTokenPresale(address,address,address,uint256)":"82140e4d","owner()":"8da5cb5b","renounceOwnership()":"715018a6","transferOwnership(address)":"f2fde38b"},"id":33}